{
  "address": "0xf5E547C683f5d72D6A463542d3e2cC13C5470D71",
  "abi": [
    {
      "inputs": [
        {
          "internalType": "string",
          "name": "_name",
          "type": "string"
        },
        {
          "internalType": "string",
          "name": "_symbol",
          "type": "string"
        },
        {
          "internalType": "uint256",
          "name": "cap_",
          "type": "uint256"
        },
        {
          "internalType": "uint256",
          "name": "_manualMintLimit",
          "type": "uint256"
        },
        {
          "internalType": "uint256",
          "name": "_lockFromBlock",
          "type": "uint256"
        },
        {
          "internalType": "uint256",
          "name": "_lockToBlock",
          "type": "uint256"
        }
      ],
      "stateMutability": "nonpayable",
      "type": "constructor"
    },
    {
      "anonymous": false,
      "inputs": [
        {
          "indexed": true,
          "internalType": "address",
          "name": "owner",
          "type": "address"
        },
        {
          "indexed": true,
          "internalType": "address",
          "name": "spender",
          "type": "address"
        },
        {
          "indexed": false,
          "internalType": "uint256",
          "name": "value",
          "type": "uint256"
        }
      ],
      "name": "Approval",
      "type": "event"
    },
    {
      "anonymous": false,
      "inputs": [
        {
          "indexed": true,
          "internalType": "address",
          "name": "delegator",
          "type": "address"
        },
        {
          "indexed": true,
          "internalType": "address",
          "name": "fromDelegate",
          "type": "address"
        },
        {
          "indexed": true,
          "internalType": "address",
          "name": "toDelegate",
          "type": "address"
        }
      ],
      "name": "DelegateChanged",
      "type": "event"
    },
    {
      "anonymous": false,
      "inputs": [
        {
          "indexed": true,
          "internalType": "address",
          "name": "delegate",
          "type": "address"
        },
        {
          "indexed": false,
          "internalType": "uint256",
          "name": "previousBalance",
          "type": "uint256"
        },
        {
          "indexed": false,
          "internalType": "uint256",
          "name": "newBalance",
          "type": "uint256"
        }
      ],
      "name": "DelegateVotesChanged",
      "type": "event"
    },
    {
      "anonymous": false,
      "inputs": [
        {
          "indexed": true,
          "internalType": "address",
          "name": "to",
          "type": "address"
        },
        {
          "indexed": false,
          "internalType": "uint256",
          "name": "value",
          "type": "uint256"
        }
      ],
      "name": "Lock",
      "type": "event"
    },
    {
      "anonymous": false,
      "inputs": [
        {
          "indexed": true,
          "internalType": "address",
          "name": "previousOwner",
          "type": "address"
        },
        {
          "indexed": true,
          "internalType": "address",
          "name": "newOwner",
          "type": "address"
        }
      ],
      "name": "OwnershipTransferred",
      "type": "event"
    },
    {
      "anonymous": false,
      "inputs": [
        {
          "indexed": true,
          "internalType": "address",
          "name": "from",
          "type": "address"
        },
        {
          "indexed": true,
          "internalType": "address",
          "name": "to",
          "type": "address"
        },
        {
          "indexed": false,
          "internalType": "uint256",
          "name": "value",
          "type": "uint256"
        }
      ],
      "name": "Transfer",
      "type": "event"
    },
    {
      "inputs": [],
      "name": "DELEGATION_TYPEHASH",
      "outputs": [
        {
          "internalType": "bytes32",
          "name": "",
          "type": "bytes32"
        }
      ],
      "stateMutability": "view",
      "type": "function"
    },
    {
      "inputs": [],
      "name": "DOMAIN_TYPEHASH",
      "outputs": [
        {
          "internalType": "bytes32",
          "name": "",
          "type": "bytes32"
        }
      ],
      "stateMutability": "view",
      "type": "function"
    },
    {
      "inputs": [
        {
          "internalType": "address",
          "name": "_toAdd",
          "type": "address"
        }
      ],
      "name": "addAuthorized",
      "outputs": [],
      "stateMutability": "nonpayable",
      "type": "function"
    },
    {
      "inputs": [
        {
          "internalType": "address",
          "name": "owner",
          "type": "address"
        },
        {
          "internalType": "address",
          "name": "spender",
          "type": "address"
        }
      ],
      "name": "allowance",
      "outputs": [
        {
          "internalType": "uint256",
          "name": "",
          "type": "uint256"
        }
      ],
      "stateMutability": "view",
      "type": "function"
    },
    {
      "inputs": [
        {
          "internalType": "address",
          "name": "spender",
          "type": "address"
        },
        {
          "internalType": "uint256",
          "name": "amount",
          "type": "uint256"
        }
      ],
      "name": "approve",
      "outputs": [
        {
          "internalType": "bool",
          "name": "",
          "type": "bool"
        }
      ],
      "stateMutability": "nonpayable",
      "type": "function"
    },
    {
      "inputs": [
        {
          "internalType": "address",
          "name": "",
          "type": "address"
        }
      ],
      "name": "authorized",
      "outputs": [
        {
          "internalType": "bool",
          "name": "",
          "type": "bool"
        }
      ],
      "stateMutability": "view",
      "type": "function"
    },
    {
      "inputs": [
        {
          "internalType": "address",
          "name": "account",
          "type": "address"
        }
      ],
      "name": "balanceOf",
      "outputs": [
        {
          "internalType": "uint256",
          "name": "",
          "type": "uint256"
        }
      ],
      "stateMutability": "view",
      "type": "function"
    },
    {
      "inputs": [
        {
          "internalType": "address",
          "name": "_holder",
          "type": "address"
        }
      ],
      "name": "canUnlockAmount",
      "outputs": [
        {
          "internalType": "uint256",
          "name": "",
          "type": "uint256"
        }
      ],
      "stateMutability": "view",
      "type": "function"
    },
    {
      "inputs": [],
      "name": "cap",
      "outputs": [
        {
          "internalType": "uint256",
          "name": "",
          "type": "uint256"
        }
      ],
      "stateMutability": "view",
      "type": "function"
    },
    {
      "inputs": [
        {
          "internalType": "uint256",
          "name": "_newCap",
          "type": "uint256"
        }
      ],
      "name": "capUpdate",
      "outputs": [],
      "stateMutability": "nonpayable",
      "type": "function"
    },
    {
      "inputs": [
        {
          "internalType": "address",
          "name": "",
          "type": "address"
        },
        {
          "internalType": "uint32",
          "name": "",
          "type": "uint32"
        }
      ],
      "name": "checkpoints",
      "outputs": [
        {
          "internalType": "uint32",
          "name": "fromBlock",
          "type": "uint32"
        },
        {
          "internalType": "uint256",
          "name": "votes",
          "type": "uint256"
        }
      ],
      "stateMutability": "view",
      "type": "function"
    },
    {
      "inputs": [],
      "name": "circulatingSupply",
      "outputs": [
        {
          "internalType": "uint256",
          "name": "",
          "type": "uint256"
        }
      ],
      "stateMutability": "view",
      "type": "function"
    },
    {
      "inputs": [],
      "name": "decimals",
      "outputs": [
        {
          "internalType": "uint8",
          "name": "",
          "type": "uint8"
        }
      ],
      "stateMutability": "view",
      "type": "function"
    },
    {
      "inputs": [
        {
          "internalType": "address",
          "name": "spender",
          "type": "address"
        },
        {
          "internalType": "uint256",
          "name": "subtractedValue",
          "type": "uint256"
        }
      ],
      "name": "decreaseAllowance",
      "outputs": [
        {
          "internalType": "bool",
          "name": "",
          "type": "bool"
        }
      ],
      "stateMutability": "nonpayable",
      "type": "function"
    },
    {
      "inputs": [
        {
          "internalType": "address",
          "name": "delegatee",
          "type": "address"
        }
      ],
      "name": "delegate",
      "outputs": [],
      "stateMutability": "nonpayable",
      "type": "function"
    },
    {
      "inputs": [
        {
          "internalType": "address",
          "name": "delegatee",
          "type": "address"
        },
        {
          "internalType": "uint256",
          "name": "nonce",
          "type": "uint256"
        },
        {
          "internalType": "uint256",
          "name": "expiry",
          "type": "uint256"
        },
        {
          "internalType": "uint8",
          "name": "v",
          "type": "uint8"
        },
        {
          "internalType": "bytes32",
          "name": "r",
          "type": "bytes32"
        },
        {
          "internalType": "bytes32",
          "name": "s",
          "type": "bytes32"
        }
      ],
      "name": "delegateBySig",
      "outputs": [],
      "stateMutability": "nonpayable",
      "type": "function"
    },
    {
      "inputs": [
        {
          "internalType": "address",
          "name": "delegator",
          "type": "address"
        }
      ],
      "name": "delegates",
      "outputs": [
        {
          "internalType": "address",
          "name": "",
          "type": "address"
        }
      ],
      "stateMutability": "view",
      "type": "function"
    },
    {
      "inputs": [
        {
          "internalType": "address",
          "name": "account",
          "type": "address"
        }
      ],
      "name": "getCurrentVotes",
      "outputs": [
        {
          "internalType": "uint256",
          "name": "",
          "type": "uint256"
        }
      ],
      "stateMutability": "view",
      "type": "function"
    },
    {
      "inputs": [
        {
          "internalType": "address",
          "name": "account",
          "type": "address"
        },
        {
          "internalType": "uint256",
          "name": "blockNumber",
          "type": "uint256"
        }
      ],
      "name": "getPriorVotes",
      "outputs": [
        {
          "internalType": "uint256",
          "name": "",
          "type": "uint256"
        }
      ],
      "stateMutability": "view",
      "type": "function"
    },
    {
      "inputs": [
        {
          "internalType": "address",
          "name": "spender",
          "type": "address"
        },
        {
          "internalType": "uint256",
          "name": "addedValue",
          "type": "uint256"
        }
      ],
      "name": "increaseAllowance",
      "outputs": [
        {
          "internalType": "bool",
          "name": "",
          "type": "bool"
        }
      ],
      "stateMutability": "nonpayable",
      "type": "function"
    },
    {
      "inputs": [
        {
          "internalType": "address",
          "name": "_holder",
          "type": "address"
        }
      ],
      "name": "lastUnlockBlock",
      "outputs": [
        {
          "internalType": "uint256",
          "name": "",
          "type": "uint256"
        }
      ],
      "stateMutability": "view",
      "type": "function"
    },
    {
      "inputs": [
        {
          "internalType": "address",
          "name": "_holder",
          "type": "address"
        },
        {
          "internalType": "uint256",
          "name": "_amount",
          "type": "uint256"
        }
      ],
      "name": "lock",
      "outputs": [],
      "stateMutability": "nonpayable",
      "type": "function"
    },
    {
      "inputs": [],
      "name": "lockFromBlock",
      "outputs": [
        {
          "internalType": "uint256",
          "name": "",
          "type": "uint256"
        }
      ],
      "stateMutability": "view",
      "type": "function"
    },
    {
      "inputs": [
        {
          "internalType": "uint256",
          "name": "_newLockFrom",
          "type": "uint256"
        }
      ],
      "name": "lockFromUpdate",
      "outputs": [],
      "stateMutability": "nonpayable",
      "type": "function"
    },
    {
      "inputs": [
        {
          "internalType": "address",
          "name": "_holder",
          "type": "address"
        }
      ],
      "name": "lockOf",
      "outputs": [
        {
          "internalType": "uint256",
          "name": "",
          "type": "uint256"
        }
      ],
      "stateMutability": "view",
      "type": "function"
    },
    {
      "inputs": [],
      "name": "lockToBlock",
      "outputs": [
        {
          "internalType": "uint256",
          "name": "",
          "type": "uint256"
        }
      ],
      "stateMutability": "view",
      "type": "function"
    },
    {
      "inputs": [
        {
          "internalType": "uint256",
          "name": "_newLockTo",
          "type": "uint256"
        }
      ],
      "name": "lockToUpdate",
      "outputs": [],
      "stateMutability": "nonpayable",
      "type": "function"
    },
    {
      "inputs": [],
      "name": "lockedSupply",
      "outputs": [
        {
          "internalType": "uint256",
          "name": "",
          "type": "uint256"
        }
      ],
      "stateMutability": "view",
      "type": "function"
    },
    {
      "inputs": [
        {
          "internalType": "address",
          "name": "_to",
          "type": "address"
        },
        {
          "internalType": "uint256",
          "name": "_amount",
          "type": "uint256"
        }
      ],
      "name": "manualMint",
      "outputs": [],
      "stateMutability": "nonpayable",
      "type": "function"
    },
    {
      "inputs": [],
      "name": "manualMintLimit",
      "outputs": [
        {
          "internalType": "uint256",
          "name": "",
          "type": "uint256"
        }
      ],
      "stateMutability": "view",
      "type": "function"
    },
    {
      "inputs": [],
      "name": "manualMinted",
      "outputs": [
        {
          "internalType": "uint256",
          "name": "",
          "type": "uint256"
        }
      ],
      "stateMutability": "view",
      "type": "function"
    },
    {
      "inputs": [
        {
          "internalType": "address",
          "name": "_to",
          "type": "address"
        },
        {
          "internalType": "uint256",
          "name": "_amount",
          "type": "uint256"
        }
      ],
      "name": "mint",
      "outputs": [],
      "stateMutability": "nonpayable",
      "type": "function"
    },
    {
      "inputs": [],
      "name": "name",
      "outputs": [
        {
          "internalType": "string",
          "name": "",
          "type": "string"
        }
      ],
      "stateMutability": "view",
      "type": "function"
    },
    {
      "inputs": [
        {
          "internalType": "address",
          "name": "",
          "type": "address"
        }
      ],
      "name": "nonces",
      "outputs": [
        {
          "internalType": "uint256",
          "name": "",
          "type": "uint256"
        }
      ],
      "stateMutability": "view",
      "type": "function"
    },
    {
      "inputs": [
        {
          "internalType": "address",
          "name": "",
          "type": "address"
        }
      ],
      "name": "numCheckpoints",
      "outputs": [
        {
          "internalType": "uint32",
          "name": "",
          "type": "uint32"
        }
      ],
      "stateMutability": "view",
      "type": "function"
    },
    {
      "inputs": [],
      "name": "owner",
      "outputs": [
        {
          "internalType": "address",
          "name": "",
          "type": "address"
        }
      ],
      "stateMutability": "view",
      "type": "function"
    },
    {
      "inputs": [
        {
          "internalType": "address",
          "name": "_toRemove",
          "type": "address"
        }
      ],
      "name": "removeAuthorized",
      "outputs": [],
      "stateMutability": "nonpayable",
      "type": "function"
    },
    {
      "inputs": [],
      "name": "renounceOwnership",
      "outputs": [],
      "stateMutability": "nonpayable",
      "type": "function"
    },
    {
      "inputs": [],
      "name": "symbol",
      "outputs": [
        {
          "internalType": "string",
          "name": "",
          "type": "string"
        }
      ],
      "stateMutability": "view",
      "type": "function"
    },
    {
      "inputs": [
        {
          "internalType": "address",
          "name": "_holder",
          "type": "address"
        }
      ],
      "name": "totalBalanceOf",
      "outputs": [
        {
          "internalType": "uint256",
          "name": "",
          "type": "uint256"
        }
      ],
      "stateMutability": "view",
      "type": "function"
    },
    {
      "inputs": [],
      "name": "totalLock",
      "outputs": [
        {
          "internalType": "uint256",
          "name": "",
          "type": "uint256"
        }
      ],
      "stateMutability": "view",
      "type": "function"
    },
    {
      "inputs": [],
      "name": "totalSupply",
      "outputs": [
        {
          "internalType": "uint256",
          "name": "",
          "type": "uint256"
        }
      ],
      "stateMutability": "view",
      "type": "function"
    },
    {
      "inputs": [
        {
          "internalType": "address",
          "name": "recipient",
          "type": "address"
        },
        {
          "internalType": "uint256",
          "name": "amount",
          "type": "uint256"
        }
      ],
      "name": "transfer",
      "outputs": [
        {
          "internalType": "bool",
          "name": "",
          "type": "bool"
        }
      ],
      "stateMutability": "nonpayable",
      "type": "function"
    },
    {
      "inputs": [
        {
          "internalType": "address",
          "name": "_to",
          "type": "address"
        }
      ],
      "name": "transferAll",
      "outputs": [],
      "stateMutability": "nonpayable",
      "type": "function"
    },
    {
      "inputs": [
        {
          "internalType": "address",
          "name": "sender",
          "type": "address"
        },
        {
          "internalType": "address",
          "name": "recipient",
          "type": "address"
        },
        {
          "internalType": "uint256",
          "name": "amount",
          "type": "uint256"
        }
      ],
      "name": "transferFrom",
      "outputs": [
        {
          "internalType": "bool",
          "name": "",
          "type": "bool"
        }
      ],
      "stateMutability": "nonpayable",
      "type": "function"
    },
    {
      "inputs": [
        {
          "internalType": "address",
          "name": "newOwner",
          "type": "address"
        }
      ],
      "name": "transferOwnership",
      "outputs": [],
      "stateMutability": "nonpayable",
      "type": "function"
    },
    {
      "inputs": [],
      "name": "unlock",
      "outputs": [],
      "stateMutability": "nonpayable",
      "type": "function"
    },
    {
      "inputs": [],
      "name": "unlockedSupply",
      "outputs": [
        {
          "internalType": "uint256",
          "name": "",
          "type": "uint256"
        }
      ],
      "stateMutability": "view",
      "type": "function"
    }
  ],
  "transactionHash": "0x3a573bc545a4ee0b17255c4a3604e355cb458961bbf139e86877b12abcd8be3c",
  "args": [
    "Kefir",
    "KEFIR",
    "500000000000000000000000000",
    "10000000000000000000000000",
    2801987,
    5270558
  ],
  "numDeployments": 1,
  "solcInputHash": "00f25360e272e2de60a12998c76a494a",
  "bytecode": "0x60806040526000600c553480156200001657600080fd5b5060405162002cce38038062002cce833981810160405260c08110156200003c57600080fd5b81019080805160405193929190846401000000008211156200005d57600080fd5b9083019060208201858111156200007357600080fd5b82516401000000008111828201881017156200008e57600080fd5b82525081516020918201929091019080838360005b83811015620000bd578181015183820152602001620000a3565b50505050905090810190601f168015620000eb5780820380516001836020036101000a031916815260200191505b50604052602001805160405193929190846401000000008211156200010f57600080fd5b9083019060208201858111156200012557600080fd5b82516401000000008111828201881017156200014057600080fd5b82525081516020918201929091019080838360005b838110156200016f57818101518382015260200162000155565b50505050905090810190601f1680156200019d5780820380516001836020036101000a031916815260200191505b50604090815260208281015191830151606084015160809094015188519396509094509187918791620001d791600391908501906200027e565b508051620001ed9060049060208401906200027e565b50506005805460ff19166012179055506000620002096200027a565b60058054610100600160a81b0319166101006001600160a01b03841690810291909117909155604051919250906000907f8be0079c531659141344cd1fd0a4f28419497f9722a3daafe3b4186f6b6457e0908290a350600793909355600b91909155600955600a55506200031a9050565b3390565b828054600181600116156101000203166002900490600052602060002090601f016020900481019282601f10620002c157805160ff1916838001178555620002f1565b82800160010185558215620002f1579182015b82811115620002f1578251825591602001919060010190620002d4565b50620002ff92915062000303565b5090565b5b80821115620002ff576000815560010162000304565b6129a4806200032a6000396000f3fe608060405234801561001057600080fd5b50600436106103205760003560e01c80637ecebe00116101a7578063c38533c6116100ee578063e6b2fb4a11610097578063f2fde38b11610071578063f2fde38b14610955578063f85b84a41461097b578063fd3d27b81461098357610320565b8063e6b2fb4a146108f3578063e7a324dc146108fb578063f1127ed81461090357610320565b8063cf1c316a116100c8578063cf1c316a14610873578063dd62ed3e14610899578063e4c5ff46146108c757610320565b8063c38533c614610807578063c3cda52014610824578063ca5c7b911461086b57610320565b8063a3a7e7f311610150578063a9059cbb1161012a578063a9059cbb1461078f578063b4b5ea57146107bb578063b9181611146107e157610320565b8063a3a7e7f314610735578063a457c2d71461075b578063a69df4b51461078757610320565b80638e875e1a116101815780638e875e1a1461071d5780639358928b1461072557806395d89b411461072d57610320565b80637ecebe00146106c957806389a2867c146106ef5780638da5cb5b1461071557610320565b806340346c491161026b5780635c19a95c1161021457806370a08231116101ee57806370a082311461066f578063715018a614610695578063782d6fe11461069d57610320565b80635c19a95c1461060257806366fc237b146106285780636fcfff451461063057610320565b80634b0ee02a116102455780634b0ee02a14610574578063587cde1e1461059a5780635a46d3b5146105dc57610320565b806340346c491461050557806340c10f1914610522578063485d7d941461054e57610320565b806323b872dd116102cd578063355274ea116102a7578063355274ea146104c957806339509351146104d15780633a1aae35146104fd57610320565b806323b872dd14610449578063282d3fdf1461047f578063313ce567146104ab57610320565b806318160ddd116102fe57806318160ddd14610401578063202b17601461041b57806320606b701461044157610320565b806306fdde0314610325578063095ea7b3146103a25780630cb285e2146103e2575b600080fd5b61032d61098b565b6040805160208082528351818301528351919283929083019185019080838360005b8381101561036757818101518382015260200161034f565b50505050905090810190601f1680156103945780820380516001836020036101000a031916815260200191505b509250505060405180910390f35b6103ce600480360360408110156103b857600080fd5b506001600160a01b038135169060200135610a21565b604080519115158252519081900360200190f35b6103ff600480360360208110156103f857600080fd5b5035610a3f565b005b610409610a7a565b60408051918252519081900360200190f35b6104096004803603602081101561043157600080fd5b50356001600160a01b0316610a80565b610409610b46565b6103ce6004803603606081101561045f57600080fd5b506001600160a01b03813581169160208101359091169060400135610b6a565b6103ff6004803603604081101561049557600080fd5b506001600160a01b038135169060200135610bf1565b6104b3610df6565b6040805160ff9092168252519081900360200190f35b610409610dff565b6103ce600480360360408110156104e757600080fd5b506001600160a01b038135169060200135610e05565b610409610e53565b6103ff6004803603602081101561051b57600080fd5b5035610e59565b6103ff6004803603604081101561053857600080fd5b506001600160a01b038135169060200135610e94565b6103ff6004803603602081101561056457600080fd5b50356001600160a01b0316610f3b565b6104096004803603602081101561058a57600080fd5b50356001600160a01b0316610fe6565b6105c0600480360360208110156105b057600080fd5b50356001600160a01b0316611013565b604080516001600160a01b039092168252519081900360200190f35b610409600480360360208110156105f257600080fd5b50356001600160a01b0316611031565b6103ff6004803603602081101561061857600080fd5b50356001600160a01b031661104c565b610409611059565b6106566004803603602081101561064657600080fd5b50356001600160a01b031661105f565b6040805163ffffffff9092168252519081900360200190f35b6104096004803603602081101561068557600080fd5b50356001600160a01b0316611077565b6103ff611092565b610409600480360360408110156106b357600080fd5b506001600160a01b03813516906020013561116d565b610409600480360360208110156106df57600080fd5b50356001600160a01b0316611375565b6104096004803603602081101561070557600080fd5b50356001600160a01b0316611387565b6105c06113a2565b6104096113b6565b6104096113bc565b61032d6113cb565b6103ff6004803603602081101561074b57600080fd5b50356001600160a01b031661142c565b6103ce6004803603604081101561077157600080fd5b506001600160a01b03813516906020013561151a565b6103ff611582565b6103ce600480360360408110156107a557600080fd5b506001600160a01b038135169060200135611662565b610409600480360360208110156107d157600080fd5b50356001600160a01b0316611676565b6103ce600480360360208110156107f757600080fd5b50356001600160a01b03166116da565b6103ff6004803603602081101561081d57600080fd5b50356116ef565b6103ff600480360360c081101561083a57600080fd5b506001600160a01b038135169060208101359060408101359060ff6060820135169060808101359060a0013561172a565b6104096119b8565b6103ff6004803603602081101561088957600080fd5b50356001600160a01b03166119c2565b610409600480360360408110156108af57600080fd5b506001600160a01b0381358116916020013516611a5a565b6103ff600480360360408110156108dd57600080fd5b506001600160a01b038135169060200135611a85565b610409611b4b565b610409611b51565b6109356004803603604081101561091957600080fd5b5080356001600160a01b0316906020013563ffffffff16611b75565b6040805163ffffffff909316835260208301919091528051918290030190f35b6103ff6004803603602081101561096b57600080fd5b50356001600160a01b0316611ba2565b610409611cd9565b610409611cdf565b60038054604080516020601f6002600019610100600188161502019095169490940493840181900481028201810190925282815260609390929091830182828015610a175780601f106109ec57610100808354040283529160200191610a17565b820191906000526020600020905b8154815290600101906020018083116109fa57829003601f168201915b5050505050905090565b6000610a35610a2e611cf5565b8484611cf9565b5060015b92915050565b3360009081526006602052604090205460ff1680610a6c575033610a616113a2565b6001600160a01b0316145b610a7557600080fd5b600a55565b60025490565b6000600954431015610a9457506000610b41565b600a544310610abc57506001600160a01b0381166000908152600d6020526040902054610b41565b6001600160a01b0382166000908152600e6020526040812054610ae0904390611de5565b6001600160a01b0384166000908152600e6020526040812054600a549293509091610b0a91611de5565b6001600160a01b0385166000908152600d6020526040902054909150610b3c908290610b369085611e42565b90611e9b565b925050505b919050565b7f8cad95687ba82c2ce50e74f7b754645e5117c3a5bec8151c0726d5857980a86681565b6000610b77848484611f02565b610be784610b83611cf5565b610be2856040518060600160405280602881526020016128a8602891396001600160a01b038a16600090815260016020526040812090610bc1611cf5565b6001600160a01b031681526020810191909152604001600020549190611f44565b611cf9565b5060019392505050565b610bf9611cf5565b6001600160a01b0316610c0a6113a2565b6001600160a01b031614610c65576040805162461bcd60e51b815260206004820181905260248201527f4f776e61626c653a2063616c6c6572206973206e6f7420746865206f776e6572604482015290519081900360640190fd5b6001600160a01b038216610cc0576040805162461bcd60e51b815260206004820152601f60248201527f45524332303a206c6f636b20746f20746865207a65726f206164647265737300604482015290519081900360640190fd5b610cc982611077565b811115610d1d576040805162461bcd60e51b815260206004820152601f60248201527f45524332303a206c6f636b20616d6f756e74206f7665722062616c616e636500604482015290519081900360640190fd5b610d28823083611f02565b6001600160a01b0382166000908152600d6020526040902054610d4b9082611fdb565b6001600160a01b0383166000908152600d6020526040902055600854610d719082611fdb565b6008556009546001600160a01b0383166000908152600e60205260409020541015610db3576009546001600160a01b0383166000908152600e60205260409020555b6040805182815290516001600160a01b038416917f625fed9875dada8643f2418b838ae0bc78d9a148a18eee4ee1979ff0f3f5d427919081900360200190a25050565b60055460ff1690565b60075490565b6000610a35610e12611cf5565b84610be28560016000610e23611cf5565b6001600160a01b03908116825260208083019390935260409182016000908120918c168152925290205490611fdb565b60085490565b3360009081526006602052604090205460ff1680610e86575033610e7b6113a2565b6001600160a01b0316145b610e8f57600080fd5b600755565b610e9c611cf5565b6001600160a01b0316610ead6113a2565b6001600160a01b031614610f08576040805162461bcd60e51b815260206004820181905260248201527f4f776e61626c653a2063616c6c6572206973206e6f7420746865206f776e6572604482015290519081900360640190fd5b610f128282612035565b6001600160a01b038083166000908152600f6020526040812054610f37921683612125565b5050565b610f43611cf5565b6001600160a01b0316610f546113a2565b6001600160a01b031614610faf576040805162461bcd60e51b815260206004820181905260248201527f4f776e61626c653a2063616c6c6572206973206e6f7420746865206f776e6572604482015290519081900360640190fd5b6001600160a01b038116331415610fc557600080fd5b6001600160a01b03166000908152600660205260409020805460ff19169055565b6000610a39610ff483611077565b6001600160a01b0384166000908152600d602052604090205490611fdb565b6001600160a01b039081166000908152600f60205260409020541690565b6001600160a01b03166000908152600d602052604090205490565b6110563382612262565b50565b60095481565b60116020526000908152604090205463ffffffff1681565b6001600160a01b031660009081526020819052604090205490565b61109a611cf5565b6001600160a01b03166110ab6113a2565b6001600160a01b031614611106576040805162461bcd60e51b815260206004820181905260248201527f4f776e61626c653a2063616c6c6572206973206e6f7420746865206f776e6572604482015290519081900360640190fd5b60055460405160009161010090046001600160a01b0316907f8be0079c531659141344cd1fd0a4f28419497f9722a3daafe3b4186f6b6457e0908390a3600580547fffffffffffffffffffffff0000000000000000000000000000000000000000ff169055565b60004382106111ad5760405162461bcd60e51b81526004018080602001828103825260328152602001806126e56032913960400191505060405180910390fd5b6001600160a01b03831660009081526011602052604090205463ffffffff16806111db576000915050610a39565b6001600160a01b038416600090815260106020908152604080832063ffffffff60001986018116855292529091205416831061124a576001600160a01b03841660009081526010602090815260408083206000199490940163ffffffff16835292905220600101549050610a39565b6001600160a01b038416600090815260106020908152604080832083805290915290205463ffffffff16831015611285576000915050610a39565b600060001982015b8163ffffffff168163ffffffff16111561133e57600282820363ffffffff160481036112b76126cd565b506001600160a01b038716600090815260106020908152604080832063ffffffff80861685529083529281902081518083019092528054909316808252600190930154918101919091529087141561131957602001519450610a399350505050565b805163ffffffff1687111561133057819350611337565b6001820392505b505061128d565b506001600160a01b038516600090815260106020908152604080832063ffffffff9094168352929052206001015491505092915050565b60126020526000908152604090205481565b6001600160a01b03166000908152600e602052604090205490565b60055461010090046001600160a01b031690565b600a5481565b60006113c6610a7a565b905090565b60048054604080516020601f6002600019610100600188161502019095169490940493840181900481028201810190925282815260609390929091830182828015610a175780601f106109ec57610100808354040283529160200191610a17565b336000908152600d6020526040808220546001600160a01b038416835291205461145591611fdb565b6001600160a01b0382166000908152600d6020908152604080832093909355600954600e9091529190205410156114a3576009546001600160a01b0382166000908152600e60205260409020555b336000908152600e6020526040808220546001600160a01b038416835291205410156114ea57336000908152600e6020526040808220546001600160a01b03841683529120555b336000818152600d60209081526040808320839055600e909152812055611056908261151582611077565b611f02565b6000610a35611527611cf5565b84610be28560405180606001604052806025815260200161294a6025913960016000611551611cf5565b6001600160a01b03908116825260208083019390935260409182016000908120918d16815292529020549190611f44565b336000908152600d60205260409020546115e3576040805162461bcd60e51b815260206004820152601460248201527f45524332303a2063616e6e6f7420756e6c6f636b000000000000000000000000604482015290519081900360640190fd5b60006115ee33610a80565b90506115f930611077565b81111561160c5761160930611077565b90505b611617303383611f02565b336000908152600d60205260409020546116319082611de5565b336000908152600d6020908152604080832093909355600e90522043905560085461165c9082611de5565b60085550565b6000610a3561166f611cf5565b8484611f02565b6001600160a01b03811660009081526011602052604081205463ffffffff16806116a15760006116d3565b6001600160a01b038316600090815260106020908152604080832063ffffffff60001986011684529091529020600101545b9392505050565b60066020526000908152604090205460ff1681565b3360009081526006602052604090205460ff168061171c5750336117116113a2565b6001600160a01b0316145b61172557600080fd5b600955565b60007f8cad95687ba82c2ce50e74f7b754645e5117c3a5bec8151c0726d5857980a86661175561098b565b8051906020012061176461230f565b60408051602080820195909552808201939093526060830191909152306080808401919091528151808403909101815260a0830182528051908401207fe48329057bfd03d55e49b547132e39cffd9c1820ad7b9d4c5307691425d15adf60c08401526001600160a01b038b1660e084015261010083018a90526101208084018a905282518085039091018152610140840183528051908501207f19010000000000000000000000000000000000000000000000000000000000006101608501526101628401829052610182808501829052835180860390910181526101a285018085528151918701919091206000918290526101c2860180865281905260ff8b166101e287015261020286018a90526102228601899052935192965090949293909260019261024280840193601f198301929081900390910190855afa1580156118b2573d6000803e3d6000fd5b5050604051601f1901519150506001600160a01b0381166119045760405162461bcd60e51b81526004018080602001828103825260318152602001806128d06031913960400191505060405180910390fd5b6001600160a01b038116600090815260126020526040902080546001810190915589146119625760405162461bcd60e51b815260040180806020018281038252602d815260200180612717602d913960400191505060405180910390fd5b874211156119a15760405162461bcd60e51b81526004018080602001828103825260318152602001806128566031913960400191505060405180910390fd5b6119ab818b612262565b505050505b505050505050565b60006113c6610e53565b6119ca611cf5565b6001600160a01b03166119db6113a2565b6001600160a01b031614611a36576040805162461bcd60e51b815260206004820181905260248201527f4f776e61626c653a2063616c6c6572206973206e6f7420746865206f776e6572604482015290519081900360640190fd5b6001600160a01b03166000908152600660205260409020805460ff19166001179055565b6001600160a01b03918216600090815260016020908152604080832093909416825291909152205490565b3360009081526006602052604090205460ff1680611ab2575033611aa76113a2565b6001600160a01b0316145b611abb57600080fd5b600b54600c54611acb9083611fdb565b1115611b085760405162461bcd60e51b81526004018080602001828103825260428152602001806128146042913960600191505060405180910390fd5b611b128282612035565b6001600160a01b038083166000908152600f6020526040812054611b37921683612125565b600c54611b449082611fdb565b600c555050565b600c5481565b7fe48329057bfd03d55e49b547132e39cffd9c1820ad7b9d4c5307691425d15adf81565b60106020908152600092835260408084209091529082529020805460019091015463ffffffff9091169082565b611baa611cf5565b6001600160a01b0316611bbb6113a2565b6001600160a01b031614611c16576040805162461bcd60e51b815260206004820181905260248201527f4f776e61626c653a2063616c6c6572206973206e6f7420746865206f776e6572604482015290519081900360640190fd5b6001600160a01b038116611c5b5760405162461bcd60e51b81526004018080602001828103825260268152602001806127a66026913960400191505060405180910390fd5b6005546040516001600160a01b0380841692610100900416907f8be0079c531659141344cd1fd0a4f28419497f9722a3daafe3b4186f6b6457e090600090a3600580546001600160a01b03909216610100027fffffffffffffffffffffff0000000000000000000000000000000000000000ff909216919091179055565b600b5481565b60006113c6600854611cef610a7a565b90611de5565b3390565b6001600160a01b038316611d3e5760405162461bcd60e51b81526004018080602001828103825260248152602001806129266024913960400191505060405180910390fd5b6001600160a01b038216611d835760405162461bcd60e51b81526004018080602001828103825260228152602001806127cc6022913960400191505060405180910390fd5b6001600160a01b03808416600081815260016020908152604080832094871680845294825291829020859055815185815291517f8c5be1e5ebec7d5bd14f71427d1e84f3dd0314c0f7b2291e5b200ac8c7c3b9259281900390910190a3505050565b600082821115611e3c576040805162461bcd60e51b815260206004820152601e60248201527f536166654d6174683a207375627472616374696f6e206f766572666c6f770000604482015290519081900360640190fd5b50900390565b600082611e5157506000610a39565b82820282848281611e5e57fe5b04146116d35760405162461bcd60e51b81526004018080602001828103825260218152602001806128876021913960400191505060405180910390fd5b6000808211611ef1576040805162461bcd60e51b815260206004820152601a60248201527f536166654d6174683a206469766973696f6e206279207a65726f000000000000604482015290519081900360640190fd5b818381611efa57fe5b049392505050565b611f0d838383612313565b6001600160a01b038084166000908152600f6020526040808220548584168352912054611f3f92918216911683612125565b505050565b60008184841115611fd35760405162461bcd60e51b81526004018080602001828103825283818151815260200191508051906020019080838360005b83811015611f98578181015183820152602001611f80565b50505050905090810190601f168015611fc55780820380516001836020036101000a031916815260200191505b509250505060405180910390fd5b505050900390565b6000828201838110156116d3576040805162461bcd60e51b815260206004820152601b60248201527f536166654d6174683a206164646974696f6e206f766572666c6f770000000000604482015290519081900360640190fd5b6001600160a01b038216612090576040805162461bcd60e51b815260206004820152601f60248201527f45524332303a206d696e7420746f20746865207a65726f206164647265737300604482015290519081900360640190fd5b61209c6000838361246e565b6002546120a99082611fdb565b6002556001600160a01b0382166000908152602081905260409020546120cf9082611fdb565b6001600160a01b0383166000818152602081815260408083209490945583518581529351929391927fddf252ad1be2c89b69c2b068fc378daa952ba7f163c4a11628f55a4df523b3ef9281900390910190a35050565b816001600160a01b0316836001600160a01b0316141580156121475750600081115b15611f3f576001600160a01b038316156121d9576001600160a01b03831660009081526011602052604081205463ffffffff1690816121875760006121b9565b6001600160a01b038516600090815260106020908152604080832063ffffffff60001987011684529091529020600101545b905060006121c78285611de5565b90506121d5868484846124ef565b5050505b6001600160a01b03821615611f3f576001600160a01b03821660009081526011602052604081205463ffffffff169081612214576000612246565b6001600160a01b038416600090815260106020908152604080832063ffffffff60001987011684529091529020600101545b905060006122548285611fdb565b90506119b0858484846124ef565b6001600160a01b038083166000908152600f60205260408120549091169061228984611077565b6001600160a01b038581166000818152600f602052604080822080547fffffffffffffffffffffffff000000000000000000000000000000000000000016898616908117909155905194955093928616927f3134e8a2e6d97e929a7e54011ea5485d7d196dd5f0ba4d4ef95803e8e3fc257f9190a4612309828483612125565b50505050565b4690565b6001600160a01b0383166123585760405162461bcd60e51b81526004018080602001828103825260258152602001806129016025913960400191505060405180910390fd5b6001600160a01b03821661239d5760405162461bcd60e51b81526004018080602001828103825260238152602001806127446023913960400191505060405180910390fd5b6123a883838361246e565b6123e5816040518060600160405280602681526020016127ee602691396001600160a01b0386166000908152602081905260409020549190611f44565b6001600160a01b0380851660009081526020819052604080822093909355908416815220546124149082611fdb565b6001600160a01b038084166000818152602081815260409182902094909455805185815290519193928716927fddf252ad1be2c89b69c2b068fc378daa952ba7f163c4a11628f55a4df523b3ef92918290030190a3505050565b612479838383611f3f565b6001600160a01b038316611f3f5760075461249c82612496610a7a565b90611fdb565b1115611f3f576040805162461bcd60e51b815260206004820152601960248201527f45524332304361707065643a2063617020657863656564656400000000000000604482015290519081900360640190fd5b6000612513436040518060600160405280603f8152602001612767603f913961266f565b905060008463ffffffff1611801561255c57506001600160a01b038516600090815260106020908152604080832063ffffffff6000198901811685529252909120548282169116145b15612599576001600160a01b038516600090815260106020908152604080832063ffffffff60001989011684529091529020600101829055612625565b60408051808201825263ffffffff808416825260208083018681526001600160a01b038a166000818152601084528681208b861682528452868120955186549086167fffffffffffffffffffffffffffffffffffffffffffffffffffffffff00000000918216178755925160019687015590815260119092529390208054928801909116919092161790555b604080518481526020810184905281516001600160a01b038816927fdec2bacdd2f05b59de34da9b523dff8be42e5e38e818c82fdb0bae774387a724928290030190a25050505050565b60008164010000000084106126c55760405162461bcd60e51b8152602060048201818152835160248401528351909283926044909101919085019080838360008315611f98578181015183820152602001611f80565b509192915050565b60408051808201909152600080825260208201529056fe476f7665726e616e6365546f6b656e3a3a6765745072696f72566f7465733a206e6f74207965742064657465726d696e6564476f7665726e616e6365546f6b656e3a3a64656c656761746542795369673a20696e76616c6964206e6f6e636545524332303a207472616e7366657220746f20746865207a65726f2061646472657373476f7665726e616e6365546f6b656e3a3a5f7772697465436865636b706f696e743a20626c6f636b206e756d626572206578636565647320333220626974734f776e61626c653a206e6577206f776e657220697320746865207a65726f206164647265737345524332303a20617070726f766520746f20746865207a65726f206164647265737345524332303a207472616e7366657220616d6f756e7420657863656564732062616c616e636545524332303a2073756d206f66206d616e75616c4d696e74656420616e6420616d6f756e742067726561746572207468616e206d616e75616c4d696e744c696d6974476f7665726e616e6365546f6b656e3a3a64656c656761746542795369673a207369676e61747572652065787069726564536166654d6174683a206d756c7469706c69636174696f6e206f766572666c6f7745524332303a207472616e7366657220616d6f756e74206578636565647320616c6c6f77616e6365476f7665726e616e6365546f6b656e3a3a64656c656761746542795369673a20696e76616c6964207369676e617475726545524332303a207472616e736665722066726f6d20746865207a65726f206164647265737345524332303a20617070726f76652066726f6d20746865207a65726f206164647265737345524332303a2064656372656173656420616c6c6f77616e63652062656c6f77207a65726fa2646970667358221220a2a9439ed57bc936661afd5d81378681d2d8a39b370b5a2c9a87cb780fb43f5264736f6c634300060c0033",
  "devdoc": {
    "kind": "dev",
    "methods": {
      "allowance(address,address)": {
        "details": "See {IERC20-allowance}."
      },
      "approve(address,uint256)": {
        "details": "See {IERC20-approve}. Requirements: - `spender` cannot be the zero address."
      },
      "balanceOf(address)": {
        "details": "See {IERC20-balanceOf}."
      },
      "cap()": {
        "details": "Returns the cap on the token's total supply."
      },
      "decimals()": {
        "details": "Returns the number of decimals used to get its user representation. For example, if `decimals` equals `2`, a balance of `505` tokens should be displayed to a user as `5,05` (`505 / 10 ** 2`). Tokens usually opt for a value of 18, imitating the relationship between Ether and Wei. This is the value {ERC20} uses, unless {_setupDecimals} is called. NOTE: This information is only used for _display_ purposes: it in no way affects any of the arithmetic of the contract, including {IERC20-balanceOf} and {IERC20-transfer}."
      },
      "decreaseAllowance(address,uint256)": {
        "details": "Atomically decreases the allowance granted to `spender` by the caller. This is an alternative to {approve} that can be used as a mitigation for problems described in {IERC20-approve}. Emits an {Approval} event indicating the updated allowance. Requirements: - `spender` cannot be the zero address. - `spender` must have allowance for the caller of at least `subtractedValue`."
      },
      "delegate(address)": {
        "params": {
          "delegatee": "The address to delegate votes to"
        }
      },
      "delegateBySig(address,uint256,uint256,uint8,bytes32,bytes32)": {
        "params": {
          "delegatee": "The address to delegate votes to",
          "expiry": "The time at which to expire the signature",
          "nonce": "The contract state required to match the signature",
          "r": "Half of the ECDSA signature pair",
          "s": "Half of the ECDSA signature pair",
          "v": "The recovery byte of the signature"
        }
      },
      "delegates(address)": {
        "params": {
          "delegator": "The address to get delegatee for"
        }
      },
      "getCurrentVotes(address)": {
        "params": {
          "account": "The address to get votes balance"
        },
        "returns": {
          "_0": "The number of current votes for `account`"
        }
      },
      "getPriorVotes(address,uint256)": {
        "details": "Block number must be a finalized block or else this function will revert to prevent misinformation.",
        "params": {
          "account": "The address of the account to check",
          "blockNumber": "The block number to get the vote balance at"
        },
        "returns": {
          "_0": "The number of votes the account had as of the given block"
        }
      },
      "increaseAllowance(address,uint256)": {
        "details": "Atomically increases the allowance granted to `spender` by the caller. This is an alternative to {approve} that can be used as a mitigation for problems described in {IERC20-approve}. Emits an {Approval} event indicating the updated allowance. Requirements: - `spender` cannot be the zero address."
      },
      "name()": {
        "details": "Returns the name of the token."
      },
      "owner()": {
        "details": "Returns the address of the current owner."
      },
      "renounceOwnership()": {
        "details": "Leaves the contract without owner. It will not be possible to call `onlyOwner` functions anymore. Can only be called by the current owner. NOTE: Renouncing ownership will leave the contract without an owner, thereby removing any functionality that is only available to the owner."
      },
      "symbol()": {
        "details": "Returns the symbol of the token, usually a shorter version of the name."
      },
      "totalSupply()": {
        "details": "See {IERC20-totalSupply}."
      },
      "transfer(address,uint256)": {
        "details": "See {IERC20-transfer}. Requirements: - `recipient` cannot be the zero address. - the caller must have a balance of at least `amount`."
      },
      "transferFrom(address,address,uint256)": {
        "details": "See {IERC20-transferFrom}. Emits an {Approval} event indicating the updated allowance. This is not required by the EIP. See the note at the beginning of {ERC20}. Requirements: - `sender` and `recipient` cannot be the zero address. - `sender` must have a balance of at least `amount`. - the caller must have allowance for ``sender``'s tokens of at least `amount`."
      },
      "transferOwnership(address)": {
        "details": "Transfers ownership of the contract to a new account (`newOwner`). Can only be called by the current owner."
      }
    },
    "stateVariables": {
      "_delegates": {
        "details": "A record of each accounts delegate"
      }
    },
    "version": 1
  },
  "userdoc": {
    "events": {
      "DelegateChanged(address,address,address)": {
        "notice": "An event thats emitted when an account changes its delegate"
      },
      "DelegateVotesChanged(address,uint256,uint256)": {
        "notice": "An event thats emitted when a delegate account's vote balance changes"
      }
    },
    "kind": "user",
    "methods": {
      "DELEGATION_TYPEHASH()": {
        "notice": "The EIP-712 typehash for the delegation struct used by the contract"
      },
      "DOMAIN_TYPEHASH()": {
        "notice": "The EIP-712 typehash for the contract's domain"
      },
      "checkpoints(address,uint32)": {
        "notice": "A record of votes checkpoints for each account, by index"
      },
      "delegate(address)": {
        "notice": "Delegate votes from `msg.sender` to `delegatee`"
      },
      "delegateBySig(address,uint256,uint256,uint8,bytes32,bytes32)": {
        "notice": "Delegates votes from signatory to `delegatee`"
      },
      "delegates(address)": {
        "notice": "Delegate votes from `msg.sender` to `delegatee`"
      },
      "getCurrentVotes(address)": {
        "notice": "Gets the current votes balance for `account`"
      },
      "getPriorVotes(address,uint256)": {
        "notice": "Determine the prior number of votes for an account as of a block number"
      },
      "mint(address,uint256)": {
        "notice": "Creates `_amount` token to `_to`. Must only be called by the owner (MasterBreeder)."
      },
      "nonces(address)": {
        "notice": "A record of states for signing / validating signatures"
      },
      "numCheckpoints(address)": {
        "notice": "The number of checkpoints for each account"
      }
    },
    "version": 1
  },
  "storageLayout": {
    "storage": [
      {
        "astId": 2872,
        "contract": "src/main/GovernanceToken.sol:GovernanceToken",
        "label": "_balances",
        "offset": 0,
        "slot": "0",
        "type": "t_mapping(t_address,t_uint256)"
      },
      {
        "astId": 2878,
        "contract": "src/main/GovernanceToken.sol:GovernanceToken",
        "label": "_allowances",
        "offset": 0,
        "slot": "1",
        "type": "t_mapping(t_address,t_mapping(t_address,t_uint256))"
      },
      {
        "astId": 2880,
        "contract": "src/main/GovernanceToken.sol:GovernanceToken",
        "label": "_totalSupply",
        "offset": 0,
        "slot": "2",
        "type": "t_uint256"
      },
      {
        "astId": 2882,
        "contract": "src/main/GovernanceToken.sol:GovernanceToken",
        "label": "_name",
        "offset": 0,
        "slot": "3",
        "type": "t_string_storage"
      },
      {
        "astId": 2884,
        "contract": "src/main/GovernanceToken.sol:GovernanceToken",
        "label": "_symbol",
        "offset": 0,
        "slot": "4",
        "type": "t_string_storage"
      },
      {
        "astId": 2886,
        "contract": "src/main/GovernanceToken.sol:GovernanceToken",
        "label": "_decimals",
        "offset": 0,
        "slot": "5",
        "type": "t_uint8"
      },
      {
        "astId": 2398,
        "contract": "src/main/GovernanceToken.sol:GovernanceToken",
        "label": "_owner",
        "offset": 1,
        "slot": "5",
        "type": "t_address"
      },
      {
        "astId": 4509,
        "contract": "src/main/GovernanceToken.sol:GovernanceToken",
        "label": "authorized",
        "offset": 0,
        "slot": "6",
        "type": "t_mapping(t_address,t_bool)"
      },
      {
        "astId": 4575,
        "contract": "src/main/GovernanceToken.sol:GovernanceToken",
        "label": "_cap",
        "offset": 0,
        "slot": "7",
        "type": "t_uint256"
      },
      {
        "astId": 4577,
        "contract": "src/main/GovernanceToken.sol:GovernanceToken",
        "label": "_totalLock",
        "offset": 0,
        "slot": "8",
        "type": "t_uint256"
      },
      {
        "astId": 4579,
        "contract": "src/main/GovernanceToken.sol:GovernanceToken",
        "label": "lockFromBlock",
        "offset": 0,
        "slot": "9",
        "type": "t_uint256"
      },
      {
        "astId": 4581,
        "contract": "src/main/GovernanceToken.sol:GovernanceToken",
        "label": "lockToBlock",
        "offset": 0,
        "slot": "10",
        "type": "t_uint256"
      },
      {
        "astId": 4583,
        "contract": "src/main/GovernanceToken.sol:GovernanceToken",
        "label": "manualMintLimit",
        "offset": 0,
        "slot": "11",
        "type": "t_uint256"
      },
      {
        "astId": 4586,
        "contract": "src/main/GovernanceToken.sol:GovernanceToken",
        "label": "manualMinted",
        "offset": 0,
        "slot": "12",
        "type": "t_uint256"
      },
      {
        "astId": 4590,
        "contract": "src/main/GovernanceToken.sol:GovernanceToken",
        "label": "_locks",
        "offset": 0,
        "slot": "13",
        "type": "t_mapping(t_address,t_uint256)"
      },
      {
        "astId": 4594,
        "contract": "src/main/GovernanceToken.sol:GovernanceToken",
        "label": "_lastUnlockBlock",
        "offset": 0,
        "slot": "14",
        "type": "t_mapping(t_address,t_uint256)"
      },
      {
        "astId": 5188,
        "contract": "src/main/GovernanceToken.sol:GovernanceToken",
        "label": "_delegates",
        "offset": 0,
        "slot": "15",
        "type": "t_mapping(t_address,t_address)"
      },
      {
        "astId": 5200,
        "contract": "src/main/GovernanceToken.sol:GovernanceToken",
        "label": "checkpoints",
        "offset": 0,
        "slot": "16",
        "type": "t_mapping(t_address,t_mapping(t_uint32,t_struct(Checkpoint)5193_storage))"
      },
      {
        "astId": 5205,
        "contract": "src/main/GovernanceToken.sol:GovernanceToken",
        "label": "numCheckpoints",
        "offset": 0,
        "slot": "17",
        "type": "t_mapping(t_address,t_uint32)"
      },
      {
        "astId": 5222,
        "contract": "src/main/GovernanceToken.sol:GovernanceToken",
        "label": "nonces",
        "offset": 0,
        "slot": "18",
        "type": "t_mapping(t_address,t_uint256)"
      }
    ],
    "types": {
      "t_address": {
        "encoding": "inplace",
        "label": "address",
        "numberOfBytes": "20"
      },
      "t_bool": {
        "encoding": "inplace",
        "label": "bool",
        "numberOfBytes": "1"
      },
      "t_mapping(t_address,t_address)": {
        "encoding": "mapping",
        "key": "t_address",
        "label": "mapping(address => address)",
        "numberOfBytes": "32",
        "value": "t_address"
      },
      "t_mapping(t_address,t_bool)": {
        "encoding": "mapping",
        "key": "t_address",
        "label": "mapping(address => bool)",
        "numberOfBytes": "32",
        "value": "t_bool"
      },
      "t_mapping(t_address,t_mapping(t_address,t_uint256))": {
        "encoding": "mapping",
        "key": "t_address",
        "label": "mapping(address => mapping(address => uint256))",
        "numberOfBytes": "32",
        "value": "t_mapping(t_address,t_uint256)"
      },
      "t_mapping(t_address,t_mapping(t_uint32,t_struct(Checkpoint)5193_storage))": {
        "encoding": "mapping",
        "key": "t_address",
        "label": "mapping(address => mapping(uint32 => struct GovernanceToken.Checkpoint))",
        "numberOfBytes": "32",
        "value": "t_mapping(t_uint32,t_struct(Checkpoint)5193_storage)"
      },
      "t_mapping(t_address,t_uint256)": {
        "encoding": "mapping",
        "key": "t_address",
        "label": "mapping(address => uint256)",
        "numberOfBytes": "32",
        "value": "t_uint256"
      },
      "t_mapping(t_address,t_uint32)": {
        "encoding": "mapping",
        "key": "t_address",
        "label": "mapping(address => uint32)",
        "numberOfBytes": "32",
        "value": "t_uint32"
      },
      "t_mapping(t_uint32,t_struct(Checkpoint)5193_storage)": {
        "encoding": "mapping",
        "key": "t_uint32",
        "label": "mapping(uint32 => struct GovernanceToken.Checkpoint)",
        "numberOfBytes": "32",
        "value": "t_struct(Checkpoint)5193_storage"
      },
      "t_string_storage": {
        "encoding": "bytes",
        "label": "string",
        "numberOfBytes": "32"
      },
      "t_struct(Checkpoint)5193_storage": {
        "encoding": "inplace",
        "label": "struct GovernanceToken.Checkpoint",
        "members": [
          {
            "astId": 5190,
            "contract": "src/main/GovernanceToken.sol:GovernanceToken",
            "label": "fromBlock",
            "offset": 0,
            "slot": "0",
            "type": "t_uint32"
          },
          {
            "astId": 5192,
            "contract": "src/main/GovernanceToken.sol:GovernanceToken",
            "label": "votes",
            "offset": 0,
            "slot": "1",
            "type": "t_uint256"
          }
        ],
        "numberOfBytes": "64"
      },
      "t_uint256": {
        "encoding": "inplace",
        "label": "uint256",
        "numberOfBytes": "32"
      },
      "t_uint32": {
        "encoding": "inplace",
        "label": "uint32",
        "numberOfBytes": "4"
      },
      "t_uint8": {
        "encoding": "inplace",
        "label": "uint8",
        "numberOfBytes": "1"
      }
    }
  }
}