{
  "address": "0x2Ba0DD1A3bB57D701e0C220a74f091eb2933d7C8",
  "abi": [
    {
      "inputs": [
        {
          "internalType": "address",
          "name": "_factory",
          "type": "address"
        },
        {
          "internalType": "address",
          "name": "_pit",
          "type": "address"
        },
        {
          "internalType": "address",
          "name": "_govToken",
          "type": "address"
        },
        {
          "internalType": "address",
          "name": "_weth",
          "type": "address"
        }
      ],
      "stateMutability": "nonpayable",
      "type": "constructor"
    },
    {
      "anonymous": false,
      "inputs": [
        {
          "indexed": true,
          "internalType": "address",
          "name": "token",
          "type": "address"
        },
        {
          "indexed": true,
          "internalType": "address",
          "name": "bridge",
          "type": "address"
        }
      ],
      "name": "LogBridgeSet",
      "type": "event"
    },
    {
      "anonymous": false,
      "inputs": [
        {
          "indexed": true,
          "internalType": "address",
          "name": "server",
          "type": "address"
        },
        {
          "indexed": true,
          "internalType": "address",
          "name": "token0",
          "type": "address"
        },
        {
          "indexed": true,
          "internalType": "address",
          "name": "token1",
          "type": "address"
        },
        {
          "indexed": false,
          "internalType": "uint256",
          "name": "amount0",
          "type": "uint256"
        },
        {
          "indexed": false,
          "internalType": "uint256",
          "name": "amount1",
          "type": "uint256"
        },
        {
          "indexed": false,
          "internalType": "uint256",
          "name": "amountGovToken",
          "type": "uint256"
        }
      ],
      "name": "LogConvert",
      "type": "event"
    },
    {
      "anonymous": false,
      "inputs": [
        {
          "indexed": true,
          "internalType": "address",
          "name": "previousOwner",
          "type": "address"
        },
        {
          "indexed": true,
          "internalType": "address",
          "name": "newOwner",
          "type": "address"
        }
      ],
      "name": "OwnershipTransferred",
      "type": "event"
    },
    {
      "inputs": [
        {
          "internalType": "address",
          "name": "token",
          "type": "address"
        }
      ],
      "name": "bridgeFor",
      "outputs": [
        {
          "internalType": "address",
          "name": "bridge",
          "type": "address"
        }
      ],
      "stateMutability": "view",
      "type": "function"
    },
    {
      "inputs": [
        {
          "internalType": "address",
          "name": "token0",
          "type": "address"
        },
        {
          "internalType": "address",
          "name": "token1",
          "type": "address"
        }
      ],
      "name": "convert",
      "outputs": [],
      "stateMutability": "nonpayable",
      "type": "function"
    },
    {
      "inputs": [
        {
          "internalType": "address[]",
          "name": "token0",
          "type": "address[]"
        },
        {
          "internalType": "address[]",
          "name": "token1",
          "type": "address[]"
        }
      ],
      "name": "convertMultiple",
      "outputs": [],
      "stateMutability": "nonpayable",
      "type": "function"
    },
    {
      "inputs": [],
      "name": "factory",
      "outputs": [
        {
          "internalType": "contract IUniswapV2Factory",
          "name": "",
          "type": "address"
        }
      ],
      "stateMutability": "view",
      "type": "function"
    },
    {
      "inputs": [],
      "name": "owner",
      "outputs": [
        {
          "internalType": "address",
          "name": "",
          "type": "address"
        }
      ],
      "stateMutability": "view",
      "type": "function"
    },
    {
      "inputs": [],
      "name": "pit",
      "outputs": [
        {
          "internalType": "address",
          "name": "",
          "type": "address"
        }
      ],
      "stateMutability": "view",
      "type": "function"
    },
    {
      "inputs": [],
      "name": "renounceOwnership",
      "outputs": [],
      "stateMutability": "nonpayable",
      "type": "function"
    },
    {
      "inputs": [
        {
          "internalType": "address",
          "name": "token",
          "type": "address"
        },
        {
          "internalType": "address",
          "name": "bridge",
          "type": "address"
        }
      ],
      "name": "setBridge",
      "outputs": [],
      "stateMutability": "nonpayable",
      "type": "function"
    },
    {
      "inputs": [
        {
          "internalType": "address",
          "name": "newOwner",
          "type": "address"
        }
      ],
      "name": "transferOwnership",
      "outputs": [],
      "stateMutability": "nonpayable",
      "type": "function"
    }
  ],
  "transactionHash": "0xd2d28b6ce9e3ef252a002ecf8832f14fed128848119e79e0952d88bf9a3cde1f",
  "args": [
    "0xeEAbe2F15266B19f3aCF743E69105016277756Fb",
    "0xA6Cb996250a65C3b2A472750DB2f1c7A300c199D",
    "0xf5E547C683f5d72D6A463542d3e2cC13C5470D71",
    "0xc86c7C0eFbd6A49B35E8714C5f59D99De09A225b"
  ],
  "numDeployments": 1,
  "solcInputHash": "00f25360e272e2de60a12998c76a494a",
  "bytecode": "0x61010060405234801561001157600080fd5b50604051611aa2380380611aa28339818101604052608081101561003457600080fd5b508051602082015160408301516060909301519192909160006100556100ce565b600080546001600160a01b0319166001600160a01b0383169081178255604051929350917f8be0079c531659141344cd1fd0a4f28419497f9722a3daafe3b4186f6b6457e0908290a3506001600160601b0319606094851b811660805292841b831660a05290831b821660c05290911b1660e0526100d2565b3390565b60805160601c60a05160601c60c05160601c60e05160601c6119216101816000398061048d52806105b85280610c0a5280610c475280610dec5280610e295280610e525280610e7f5280610ebc5280610ee55250806104505280610b745280610bb95280610ca75280610cec5280610d505280610d9552806110d55250806106655280610bdb5280610d0e5280610db752806110f752508061064152806107ac528061112752506119216000f3fe608060405234801561001057600080fd5b50600436106100a35760003560e01c8063a761a93911610076578063c45a01551161005b578063c45a01551461021a578063f03c7c6e14610222578063f2fde38b1461022a576100a3565b8063a761a939146101c6578063bd1b820c146101ec576100a3565b8063303e6aa4146100a8578063715018a61461016c5780638da5cb5b146101745780639d22ae8c14610198575b600080fd5b61016a600480360360408110156100be57600080fd5b8101906020810181356401000000008111156100d957600080fd5b8201836020820111156100eb57600080fd5b8035906020019184602083028401116401000000008311171561010d57600080fd5b91939092909160208101903564010000000081111561012b57600080fd5b82018360208201111561013d57600080fd5b8035906020019184602083028401116401000000008311171561015f57600080fd5b509092509050610250565b005b61016a610300565b61017c6103cb565b604080516001600160a01b039092168252519081900360200190f35b61016a600480360360408110156101ae57600080fd5b506001600160a01b03813581169160200135166103da565b61017c600480360360208110156101dc57600080fd5b50356001600160a01b0316610595565b61016a6004803603604081101561020257600080fd5b506001600160a01b03813581169160200135166105dd565b61017c61063f565b61017c610663565b61016a6004803603602081101561024057600080fd5b50356001600160a01b0316610687565b3332146102a4576040805162461bcd60e51b815260206004820152601860248201527f506974427265656465723a206d7573742075736520454f410000000000000000604482015290519081900360640190fd5b8260005b818110156102f8576102f08686838181106102bf57fe5b905060200201356001600160a01b03168585848181106102db57fe5b905060200201356001600160a01b03166107a8565b6001016102a8565b505050505050565b610308610abf565b6001600160a01b03166103196103cb565b6001600160a01b031614610374576040805162461bcd60e51b815260206004820181905260248201527f4f776e61626c653a2063616c6c6572206973206e6f7420746865206f776e6572604482015290519081900360640190fd5b600080546040516001600160a01b03909116907f8be0079c531659141344cd1fd0a4f28419497f9722a3daafe3b4186f6b6457e0908390a36000805473ffffffffffffffffffffffffffffffffffffffff19169055565b6000546001600160a01b031690565b6103e2610abf565b6001600160a01b03166103f36103cb565b6001600160a01b03161461044e576040805162461bcd60e51b815260206004820181905260248201527f4f776e61626c653a2063616c6c6572206973206e6f7420746865206f776e6572604482015290519081900360640190fd5b7f00000000000000000000000000000000000000000000000000000000000000006001600160a01b0316826001600160a01b0316141580156104c257507f00000000000000000000000000000000000000000000000000000000000000006001600160a01b0316826001600160a01b031614155b80156104e05750806001600160a01b0316826001600160a01b031614155b610531576040805162461bcd60e51b815260206004820152601a60248201527f506974427265656465723a20496e76616c696420627269646765000000000000604482015290519081900360640190fd5b6001600160a01b03828116600081815260016020526040808220805473ffffffffffffffffffffffffffffffffffffffff19169486169485179055517f2e103aa707acc565f9a1547341914802b2bfe977fd79c595209f248ae4b006139190a35050565b6001600160a01b0380821660009081526001602052604090205416806105d857507f00000000000000000000000000000000000000000000000000000000000000005b919050565b333214610631576040805162461bcd60e51b815260206004820152601860248201527f506974427265656465723a206d7573742075736520454f410000000000000000604482015290519081900360640190fd5b61063b82826107a8565b5050565b7f000000000000000000000000000000000000000000000000000000000000000081565b7f000000000000000000000000000000000000000000000000000000000000000081565b61068f610abf565b6001600160a01b03166106a06103cb565b6001600160a01b0316146106fb576040805162461bcd60e51b815260206004820181905260248201527f4f776e61626c653a2063616c6c6572206973206e6f7420746865206f776e6572604482015290519081900360640190fd5b6001600160a01b0381166107405760405162461bcd60e51b81526004018080602001828103825260268152602001806118556026913960400191505060405180910390fd5b600080546040516001600160a01b03808516939216917f8be0079c531659141344cd1fd0a4f28419497f9722a3daafe3b4186f6b6457e091a36000805473ffffffffffffffffffffffffffffffffffffffff19166001600160a01b0392909216919091179055565b60007f00000000000000000000000000000000000000000000000000000000000000006001600160a01b031663e6a4390584846040518363ffffffff1660e01b815260040180836001600160a01b03168152602001826001600160a01b031681526020019250505060206040518083038186803b15801561082857600080fd5b505afa15801561083c573d6000803e3d6000fd5b505050506040513d602081101561085257600080fd5b505190506001600160a01b0381166108b1576040805162461bcd60e51b815260206004820152601860248201527f506974427265656465723a20496e76616c696420706169720000000000000000604482015290519081900360640190fd5b61093f81826001600160a01b03166370a08231306040518263ffffffff1660e01b815260040180826001600160a01b0316815260200191505060206040518083038186803b15801561090257600080fd5b505afa158015610916573d6000803e3d6000fd5b505050506040513d602081101561092c57600080fd5b50516001600160a01b0384169190610ac3565b600080826001600160a01b03166389afcb44306040518263ffffffff1660e01b815260040180826001600160a01b031681526020019150506040805180830381600087803b15801561099057600080fd5b505af11580156109a4573d6000803e3d6000fd5b505050506040513d60408110156109ba57600080fd5b508051602091820151604080517f0dfe168100000000000000000000000000000000000000000000000000000000815290519295509093506001600160a01b03861692630dfe168192600480840193829003018186803b158015610a1d57600080fd5b505afa158015610a31573d6000803e3d6000fd5b505050506040513d6020811015610a4757600080fd5b50516001600160a01b03868116911614610a5d57905b6001600160a01b03808516908616337fd06b1d7ed79b664d17472c6f6997b929f1abe463ccccb4e5b6a0038f2f730c158585610a9b8b8b8484610b48565b60408051938452602084019290925282820152519081900360600190a45050505050565b3390565b604080516001600160a01b038416602482015260448082018490528251808303909101815260649091019091526020810180517bffffffffffffffffffffffffffffffffffffffffffffffffffffffff167fa9059cbb00000000000000000000000000000000000000000000000000000000179052610b43908490610fb9565b505050565b6000836001600160a01b0316856001600160a01b03161415610ca5576000610b70848461106a565b90507f00000000000000000000000000000000000000000000000000000000000000006001600160a01b0316866001600160a01b03161415610c0857610c006001600160a01b037f0000000000000000000000000000000000000000000000000000000000000000167f000000000000000000000000000000000000000000000000000000000000000083610ac3565b809150610c9f565b7f00000000000000000000000000000000000000000000000000000000000000006001600160a01b0316866001600160a01b03161415610c7357610c6c7f0000000000000000000000000000000000000000000000000000000000000000826110cd565b9150610c9f565b6000610c7e87610595565b9050610c8c87828430611122565b9150610c9b8182846000610b48565b9250505b50610fb1565b7f00000000000000000000000000000000000000000000000000000000000000006001600160a01b0316856001600160a01b03161415610d4e57610d336001600160a01b037f0000000000000000000000000000000000000000000000000000000000000000167f000000000000000000000000000000000000000000000000000000000000000085610ac3565b610d4783610d4186856110cd565b9061106a565b9050610fb1565b7f00000000000000000000000000000000000000000000000000000000000000006001600160a01b0316846001600160a01b03161415610dea57610ddc6001600160a01b037f0000000000000000000000000000000000000000000000000000000000000000167f000000000000000000000000000000000000000000000000000000000000000084610ac3565b610d4782610d4187866110cd565b7f00000000000000000000000000000000000000000000000000000000000000006001600160a01b0316856001600160a01b03161415610e7d57610d477f0000000000000000000000000000000000000000000000000000000000000000610e7885610d41887f00000000000000000000000000000000000000000000000000000000000000008830611122565b6110cd565b7f00000000000000000000000000000000000000000000000000000000000000006001600160a01b0316846001600160a01b03161415610f0b57610d477f0000000000000000000000000000000000000000000000000000000000000000610e7884610d41897f00000000000000000000000000000000000000000000000000000000000000008930611122565b6000610f1686610595565b90506000610f2386610595565b9050856001600160a01b0316826001600160a01b03161415610f5d57610f568287610f508a868a30611122565b87610b48565b9250610fae565b866001600160a01b0316816001600160a01b03161415610f8e57610f56878287610f898a868a30611122565b610b48565b610fab8282610f9f8a868a30611122565b610f898a868a30611122565b92505b50505b949350505050565b606061100e826040518060400160405280602081526020017f5361666545524332303a206c6f772d6c6576656c2063616c6c206661696c6564815250856001600160a01b03166115d39092919063ffffffff16565b805190915015610b435780806020019051602081101561102d57600080fd5b5051610b435760405162461bcd60e51b815260040180806020018281038252602a8152602001806118c2602a913960400191505060405180910390fd5b6000828201838110156110c4576040805162461bcd60e51b815260206004820152601b60248201527f536166654d6174683a206164646974696f6e206f766572666c6f770000000000604482015290519081900360640190fd5b90505b92915050565b600061111b837f0000000000000000000000000000000000000000000000000000000000000000847f0000000000000000000000000000000000000000000000000000000000000000611122565b9392505050565b6000807f00000000000000000000000000000000000000000000000000000000000000006001600160a01b031663e6a4390587876040518363ffffffff1660e01b815260040180836001600160a01b03168152602001826001600160a01b031681526020019250505060206040518083038186803b1580156111a357600080fd5b505afa1580156111b7573d6000803e3d6000fd5b505050506040513d60208110156111cd57600080fd5b505190506001600160a01b03811661122c576040805162461bcd60e51b815260206004820152601a60248201527f506974427265656465723a2043616e6e6f7420636f6e76657274000000000000604482015290519081900360640190fd5b600080826001600160a01b0316630902f1ac6040518163ffffffff1660e01b815260040160606040518083038186803b15801561126857600080fd5b505afa15801561127c573d6000803e3d6000fd5b505050506040513d606081101561129257600080fd5b5080516020909101516dffffffffffffffffffffffffffff918216935016905060006112c0876103e56115e2565b9050836001600160a01b0316630dfe16816040518163ffffffff1660e01b815260040160206040518083038186803b1580156112fb57600080fd5b505afa15801561130f573d6000803e3d6000fd5b505050506040513d602081101561132557600080fd5b50516001600160a01b038a8116911614156114855761134a81610d41856103e86115e2565b6113608361135a8a6103e56115e2565b906115e2565b8161136757fe5b04945061137e6001600160a01b038a168589610ac3565b60408051600080825260208201928390527f022c0d9f00000000000000000000000000000000000000000000000000000000835260248201818152604483018990526001600160a01b038a81166064850152608060848501908152845160a48601819052918a169563022c0d9f958c948e9491939092909160c4850191908083838b5b83811015611419578181015183820152602001611401565b50505050905090810190601f1680156114465780820380516001836020036101000a031916815260200191505b5095505050505050600060405180830381600087803b15801561146857600080fd5b505af115801561147c573d6000803e3d6000fd5b505050506115c7565b61149581610d41846103e86115e2565b6114a58461135a8a6103e56115e2565b816114ac57fe5b0494506114c36001600160a01b038a168589610ac3565b60408051600080825260208201928390527f022c0d9f00000000000000000000000000000000000000000000000000000000835260248201888152604483018290526001600160a01b038a81166064850152608060848501908152845160a48601819052918a169563022c0d9f958c95948e9491939092909160c4850191908083838a5b8381101561155f578181015183820152602001611547565b50505050905090810190601f16801561158c5780820380516001836020036101000a031916815260200191505b5095505050505050600060405180830381600087803b1580156115ae57600080fd5b505af11580156115c2573d6000803e3d6000fd5b505050505b50505050949350505050565b6060610fb1848460008561163b565b6000826115f1575060006110c7565b828202828482816115fe57fe5b04146110c45760405162461bcd60e51b81526004018080602001828103825260218152602001806118a16021913960400191505060405180910390fd5b60608247101561167c5760405162461bcd60e51b815260040180806020018281038252602681526020018061187b6026913960400191505060405180910390fd5b611685856117aa565b6116d6576040805162461bcd60e51b815260206004820152601d60248201527f416464726573733a2063616c6c20746f206e6f6e2d636f6e7472616374000000604482015290519081900360640190fd5b60006060866001600160a01b031685876040518082805190602001908083835b6020831061173357805182527fffffffffffffffffffffffffffffffffffffffffffffffffffffffffffffffe090920191602091820191016116f6565b6001836020036101000a03801982511681845116808217855250505050505090500191505060006040518083038185875af1925050503d8060008114611795576040519150601f19603f3d011682016040523d82523d6000602084013e61179a565b606091505b5091509150610fab8282866117b0565b3b151590565b606083156117bf57508161111b565b8251156117cf5782518084602001fd5b8160405162461bcd60e51b81526004018080602001828103825283818151815260200191508051906020019080838360005b83811015611819578181015183820152602001611801565b50505050905090810190601f1680156118465780820380516001836020036101000a031916815260200191505b509250505060405180910390fdfe4f776e61626c653a206e6577206f776e657220697320746865207a65726f2061646472657373416464726573733a20696e73756666696369656e742062616c616e636520666f722063616c6c536166654d6174683a206d756c7469706c69636174696f6e206f766572666c6f775361666545524332303a204552433230206f7065726174696f6e20646964206e6f742073756363656564a2646970667358221220efe50ff3d6a96e418bc3c09708f9a3b9c35714338ad97537287f5ad80989452d64736f6c634300060c0033",
  "devdoc": {
    "kind": "dev",
    "methods": {
      "owner()": {
        "details": "Returns the address of the current owner."
      },
      "renounceOwnership()": {
        "details": "Leaves the contract without owner. It will not be possible to call `onlyOwner` functions anymore. Can only be called by the current owner. NOTE: Renouncing ownership will leave the contract without an owner, thereby removing any functionality that is only available to the owner."
      },
      "transferOwnership(address)": {
        "details": "Transfers ownership of the contract to a new account (`newOwner`). Can only be called by the current owner."
      }
    },
    "version": 1
  },
  "userdoc": {
    "kind": "user",
    "methods": {},
    "version": 1
  },
  "storageLayout": {
    "storage": [
      {
        "astId": 2398,
        "contract": "src/main/PitBreeder.sol:PitBreeder",
        "label": "_owner",
        "offset": 0,
        "slot": "0",
        "type": "t_address"
      },
      {
        "astId": 9178,
        "contract": "src/main/PitBreeder.sol:PitBreeder",
        "label": "_bridges",
        "offset": 0,
        "slot": "1",
        "type": "t_mapping(t_address,t_address)"
      }
    ],
    "types": {
      "t_address": {
        "encoding": "inplace",
        "label": "address",
        "numberOfBytes": "20"
      },
      "t_mapping(t_address,t_address)": {
        "encoding": "mapping",
        "key": "t_address",
        "label": "mapping(address => address)",
        "numberOfBytes": "32",
        "value": "t_address"
      }
    }
  }
}